:040000008A15002835
:10000800FF00030E83018316BD000A08BC008A01A5
:1000180070088312A4007B08A3007C08A2007D0856
:10002800A1000B1C2028061E1F280130B800003034
:10003800B900D901DA010B100B1D552800305506FF
:10004800031D2828003054060319412886144E3011
:10005800FC00EB30FD00FD0B2F28FC0B2F28861031
:100068004E30FC00EB30FD00FD0B3828FC0B382827
:100078000130D402031CD503222800305506031D85
:10008800472800305406031D54280130E100003091
:10009800E2009B30D400D501B801B90186108B125B
:1000A8000B118B1C7A28A50A0319A60A013003171D
:1000B8009F00031325080317A00061278312031369
:1000C80006150630FB001330FC00AD30FD00FD0BBB
:1000D8006B28FC0B6B28FB0B6B280000000006113B
:1000E80001308316BA000030BB008B10831224083D
:1000F800F0002308FB002208FC002108FD008316FD
:0E0108003C088A003D0E8300FF0E7F0E0900AA
:0E011600F201F101F001F801F30100300800E0
:100124007B15FB1F9C280130F300F201F101F00163
:08013400FA0DF20CFF30080087
:08013C00FA1FF2130030080065
:10014400FB14FB1FAC28FF30F300F200F100F000B9
:08015400FA0DF20CFF30080067
:10015C00A0017208031DC3287108F2007008F10099
:10016C00F001A0157208031DC3287108F200F101FB
:10017C00A011201672080319D1282008F302031DC0
:10018C00031CD5280310F21BD928F00DF10DF20D2C
:10019C00F30BC928D5280130FC008B20DC28023059
:0E01AC00FC009220DC280430FC009E2008009D
:0601BA0000000000080037
:1001C0000F3083120313FC004730FD00FD0BE628BF
:0A01D000FC0BE62800000000080008
:0E01DA00213083120313FD00FD0BF1280800F5
:1001E8007C182A29FC18FB287C194929F428A00125
:1001F8007208031D1B297108F2007008F1007808C5
:10020800F000F801A0157208031D1B297108F200FF
:100218007008F100F001A01120167208031D1B29B7
:100228007108F200F101A015720803193D29200890
:10023800F302031D031C41290310F21B2A29F80DA0
:10024800F00DF10DF20DF30B212941297B1B701CD8
:100258004529F81F4529F00A0319F10A0319F20A7A
:10026800031D4529F20CF10CF00CF30A0319492976
:1002780045290130FC008B204C290230FC009220DB
:100288004C290430FC009E204C290830FC00A22098
:04029800000008005A
:10029C008312031372087606A000F801F9017308A3
:1002AC007702031C71297708FD007308F7007D089D
:1002BC00F3007608FD007208F6007D08F200750860
:1002CC00FD007108F5007D08F1007408FD00700850
:1002DC00F4007D08F00077080319EA297208FA0087
:1002EC00F217F61777087302F7000319A4290830E0
:1002FC007702031C9A29F7007408F9007508F400BA
:10030C007608F500F60108307702031C9A29F700ED
:10031C007408F9007508F400F50108307702031C25
:10032C009A297A08F200EA2977080319A4290310FC
:10033C00F60CF50CF40CF90CF70B9D29A01FB12948
:10034C00F909F409F509F609F90A0319F40A03196C
:10035C00F50A0319F60A7908F80774080318740FDC
:10036C00F00775080318750FF10776080318760F58
:10037C00F207A01BCA29031CDA29F20CF10CF00CB1
:10038C00F80CF30FDA29E6290318DE29F809F0092D
:10039C00F109F209F80A0319F00A0319F10A031911
:1003AC00F20A8030FA06E2290130FC00F420EC2934
:1003BC000230FC00F420EC290430FC00AE20EC29C7
:1003CC000830FC00A220EC290030FC0000000800E2
:1003DC00710DF80DF90D7408F8027508031C750FF2
:1003EC00F902F00DF10D0F30FC00710DF80DF90D47
:1003FC007408701C072AF8027508031C750FF902A3
:10040C000C2AF80775080318750FF907F00DF10D94
:10041C00FC0BFB297018182A7408F80775080318C8
:08042C00750FF907000008003C
:1004340083120313F801F9011030FC00710DF80D5B
:10044400F90D7408F8027508031C750FF9020318F6
:10045400322A7408F80775080318750FF907031092
:0A046400F00DF10DFC0B202A08003A
:10046E007B14FB1F422AF201FA1FFF30F200F1004B
:0A047E00F000FA0DF20CFF30080048
:10048800831203179E1B4B2A031388114D2A03134B
:10049800881503171E1B532A03130811552A031323
:1004A800081503179E1A5B2A031388105D2A031385
:1004B800881403171E1A632A03130810652A0313E6
:1004C80008146F18692A08166A2A08128816DD2087
:1004D800881203179E19732A03138811752A0313A8
:1004E800881503171E197B2A031308117D2A031385
:1004F800081503179E18832A03138810852A0313E7
:10050800881403171E188B2A031308108D2A031347
:1005180008146F18912A0816922A08128816DD20E6
:0E05280088126F1C992AE0209A2AED20080004
:10053600831203136F10031719089E0044226F14C9
:020546000800AB
:1005480083120313FB017308031D77080319FB2AA1
:1005580072087606FA007708F3077E30031CB82A7B
:10056800F3020318FE2ABB2AF302031C012B7208AC
:10057800F8007108FC007008FD00F817F617031062
:10058800F201F101F0011830A0007D1CD52A740891
:10059800F00775080318750FF10776080318760F2A
:1005A800F207F20CF10CF00CF80CFC0CFD0C03102B
:1005B800A00BC92AF21BE52AF80DF00DF10DF20D7A
:1005C800F3037B1B701CF72AF81FF72AF00A03199C
:1005D800F10A0319F20A031DF72AF20CF10CF00CC8
:1005E800F30A0319FE2AFA1FF2130030032B013015
:1005F8008B20032B0230A220032B04309220000012
:020608000800E8
:0E060A00831203136B088A006A08820008003E
:10061800831203137408003A031D1B2B7508003A54
:10062800031D1B2BFF30F0007F30F100742B831269
:100638000313FD01F901F80171087004031900346E
:1006480071087506FA00FA1BFD09FB01F51F312B2D
:10065800F409F509F40A0319F50AF11F382BF00912
:10066800F109F00A0319F10A71087504FA00FA1B76
:100678004D2BEE217B18602BFD1F0034F009F1098A
:10068800F00A0319F10AF809F909F80A0319F90A2D
:100698000034F51F5C2BF11B582B7108F90070080A
:1006A800F800F101F001402BF101F001F00A0034EB
:1006B800F109F009FB0A3D2BF80A0319F90A740835
:1006C8007802031D402B75087902031D402BF901A0
:1006D800F801F00A0319F10AF11F402B0000FF345A
:0206E800080008
:0606EA00FB15FF300800C3
:1006F00083120313FB0173080319B52B7208FA0068
:10070000F2178E30F302F31FB82BF309F30A083007
:100710007302031C9B2BF300F10D7208F100F20130
:1007200008307302031C9B2BF300F10DF1017308D9
:10073000031D0310A32B73080319A32B0310F20C42
:10074000F10CF30B9E2B7B1B711CAD2B031CAD2BF3
:10075000F10A0319F20AF21BC42BFA1FC72BF20984
:10076000F109F10A0319F20AC72BF201F101C72BB3
:100770007B14FB1FCA2BF201FA1FCA2BFF30F200B9
:10078000F100FA0DF20CCA2B0130FC00CC2B00302A
:10079000FC00CC2BFF30FC00FC080319D02B3722C7
:0A07A0007108F0007208F100080073
:0C07AA00831203138030F6064E21080075
:1007B600831203137008F8007108F000F101F201CA
:1007C600F301FB01FC019630F300FA01F01FF12B57
:1007D600F809F009F80A0319F00AFA177008F10087
:0C07E6007808F000F801F201AE200800D5
:1007F2000E3083120313FD00FD0BFD2B00000800D9
:10080200831203179C0105301C0203180F2C1C08CD
:100812001B078400203080009C0A042C1C081B0744
:10082200840080019C031C081B079D000A30F40011
:10083200F5011908F0001A08F1001A227808F000F0
:100842007908F1003030F00703171D0884007008A2
:1008520080000A30F400F5011908F0001A08F100CE
:100862001A2270080317990071089A000030710665
:10087200031D3D2C00307006031D402C422C9C03AE
:04088200142C08002A
:10088600831203171008F0001108F1001208F20095
:100896001308F3007823700803179700710898006F
:1008A600170883160313EE0083120317180883161E
:1008B6000313EF00831203171708F0001808F1005E
:1008C600DB237008F4007108F5007208F60073085F
:1008D600F70003171008F0001108F1001208F200E3
:1008E6001308F300D5230030F4000030F50048303B
:1008F600F6008530F700A4227823700803179500C8
:10090600710896000A30F4000030F5001708F00070
:100916001808F1000C233030F00703171408840080
:1009260070088000140A97000A30F4000030F500C1
:10093600831603136E08F0006F08F1000C23780885
:10094600F0007908F1003030F0070317170884002B
:10095600700880000230140784002E3080000330B7
:10096600140797000A30F4000030F5001508F0006F
:100976001608F1000C233030F0070317170884001F
:10098600700880000430140797000A30F400003025
:10099600F5001508F0001608F1000C237808F000A1
:1009A6007908F1003030F007031717088400700843
:1009B6008000053014078400DF30800006301407FD
:1009C600840043308000073014078400800108004B
:1009D60083120317930194011008950011089600DD
:1009E60080301106F00080307002031DFC2C0030B0
:1009F600100203180A2D01309300003094001008ED
:100A0600003C95001108031C013E9601960215084C
:100A1600990016089A0012089B00012406308316D6
:100A26000313EE000030EF006F08003C031D1D2D80
:100A36006E08003C0318402D6E0883120317120738
:100A4600F2000130831603136E02F0000030031C1F
:100A5600013E6F02F100700883120317120784002B
:100A66000008F000720884007008800001308316C8
:100A76000313EE02031CEF03172D8312031712084C
:100A86008400203080001308140403196A2D83168D
:100A96000313EE01EF016E08831203171207840099
:100AA6000008203A031D5D2D83160313EE0A031971
:100AB600EF0A4E2D831603130130EE02031CEF03DB
:100AC6006E0883120317120784002D308000080079
:100AD600831603136E08831203178D0083168C1377
:0A0AE6000C1483120C08F000080045
:100AF000831203137408003A031D932D7508003AFE
:100B0000031D932D7608003A031D932D7708003AB4
:100B1000031D932DFF30F000FF30F1007F30F20015
:100B2000FF30F3002E2E8312031377080319222EB1
:100B300073080319252E720876068039FA00F21719
:100B4000F617A0017208F8007108FC007008FD009B
:100B50007408FD027508031C750FFC027608031C5F
:100B6000760FF802F801FC01FD01031CBE2D0310F5
:100B7000F20CF10CF00CF80C0130A0007708F30235
:100B8000031CC82D7E302007F3070318282ECD2D17
:100B90007E302007F307031C2B2E1830FA07FD0DBB
:100BA000FC0DF80DF00DF10DF20DA00D7408F00222
:100BB0007508031C750FF1027608031C760FF2020C
:100BC000760DA004201CE62D7D14F12D7408F0078D
:100BD00075080318750FF10776080318760AF207EF
:100BE0007D10FA031F307A05031DCF2D7B1B7D1C62
:100BF000182E0310F00DF10DF20DA00D7408F00287
:100C00007508031C750FF1027608031C760FF202BB
:100C1000760D20040139FD070318FC0A0319F80AB0
:100C2000031D182EF80CFC0CFD0CF30A0319282EDA
:100C3000FA1FF8137808F2007C08F1007D08F00034
:100C400000302D2E013075232D2E02308B202D2EBD
:0E0C50000430A2202D2E083092200000080053
:100C5E00831203139F01C0309F045609F0007008E1
:100C6E0083169F051F179F176E08F000F00D70106A
:100C7E00F00D7010F00D7010700883129F041F1489
:100C8E00F9231F151F1D4D2E0000492E1F101E0883
:100C9E00F100F00183161E08F0040030F104080084
:100CAE0005238A110A128000840AEA0A0319EB0A44
:080CBE00F003031D572E08008E
:100CC600FF3083120313EC00FF30ED00FF30EE001F
:100CD600FF309F01C0309F045609F000700883164C
:0C0CE6009F051F179F1783121F140800A2
:100CF2008B2E80308312031790009E2EC0309000FE
:100D02009E2E943090009E2ED43090009E2E8030E5
:100D120090009E2E831203171008013A03197A2EAF
:100D22001008023A03197F2E1008033A0319822E83
:100D32001008043A0319852E882E1103F0001008BA
:100D4200F0077008900070089E0044226F1083160E
:100D5200EE016E08831203171207840000080319BC
:100D6200BF2E831603136E08831203171207840023
:100D7200000899009B228316EE0AAA2E03138312FF
:040D82006F140800E2
:100D860083120313FA017308031D7A147708031DEF
:100D9600FA147A0803190F2F033A0319DA2E7A1870
:100DA600D72EF61F0D2F0B2FF21F0B2F0D2F7208AC
:100DB6008039FA00F21376088039F6137A06031999
:100DC600E82E7A0803190B2F0D2F770873020319E3
:100DD600EF2E031C032F072F760872020319F62E37
:100DE600031C032F072F750871020319FD2E031C20
:100DF600032F072F7408700203190F2F0318072FEC
:100E0600FA0803190D2F0B2FFA0803190B2F0D2FB4
:100E16000314080003100800031403150800080053
:100E260083160313881208120810881008118811F7
:100E36008312881208128811081188100810E02001
:100E4600E020E020881408148816DD208812E020AF
:100E56008816DD208812E0208816DD208812E02022
:100E660008108816DD208812E0208816DD208812FA
:100E7600881088158816DD208812E020881108144D
:100E86008816DD20881208108816DD208812E020DA
:100E96008816DD20881208148816DD208812E020C6
:100EA60008108816DD20881288150815881408147D
:0C0EB6008816DD208812E0206F14080070
:100EC200831603178C1C672F0000612F83121F08E3
:100ED2008D0020088C0083168C130C150B08F00073
:100EE2008B1355308D00AA308D008C14F01B7B2F94
:0A0EF2008B137C2F8B170C110800E6
:100F9C0025308400453083120313F0007E30EA00C4
:100FAC000730EB005726A03084000A30831203135D
:0E0FBC00F000C330EA000730EB0057260800B3
:101000008A11CE278A157130831603138600831246
:1010100086018316880187018312870188018A115E
:1010200063268A150B168B178B15831601178111F2
:101030000115811401148112831281018A11132771
:101040008A15013003179E008A1144228A150C303C
:1010500003179E008A1144228A150130031790005D
:10106000013091003A3092008A1179268A150630B3
:10107000FB001330FC00AD30FD00FD0B3D28FC0BE8
:101080003D28FB0B3D280000000001308316EE00D8
:101090008A116B258A1570080313A500A6010B1190
:1010A0008316EE018A112F268A158A11DB238A15F1
:1010B0000030F4000030F5002030F6008130F700F9
:1010C0008A11A4228A150030F4000030F50048305F
:1010D000F6008530F7008A11A4228A150030F4004A
:1010E000C030F5007F30F6008830F7008A1178258F
:1010F0008A157008F4007108F5007208F60073088C
:10110000F7000030F0000030F1006030F200833072
:10111000F3008A11C3268A15013003180030F0004D
:101120007008031996280717861498280713861045
:1011300000303906031D9E2801303806031DB828EB
:101140000530B6070318B70A8A1113278A1501302C
:1011500003179E008A1144228A150130031790005C
:1011600003309100273092008A1179268A158B1658
:1011700000306206031DBE2801306106031DD4281D
:10118000013003179E008A1144228A15013003178B
:101190009000013091005B3092008A1179268A1507
:1011A000D901DA01E101E201003083163B06031D9B
:1011B000DB2801303A06031D1A2901308312031778
:1011C0009E008A1144228A152508031790000313F4
:1011D000260803179100BE3092008A11EB248A156D
:1011E0000130900001309100A03092008A117926E0
:1011F0008A1502300317900001309100BE30920032
:101200008A1179268A151F30FB007130FC001E30D0
:10121000FD00FD0B0929FC0B0929FB0B0929000026
:10122000013003179E008A1144228A150611831685
:10123000BA01BB018312861E61293608031790008C
:101240000313370803179100CE3092008A11EB2464
:101250008A1501309E008A1144228A150130031735
:10126000900001309100633092008A1179268A152E
:1012700002300317900001309100CE3092008A11A5
:1012800079268A1506150B30FB002630FC005D30F0
:10129000FD00FD0B4929FC0B4929FB0B49290000E6
:1012A000000006110B30FB002630FC005D30FD0015
:1012B000FD0B5829FC0B5829FB0B58290000000096
:1012C0006429861A64290611061FB1290F305707B1
:1012D000F00058080318013EF1007008D7007108AB
:1012E000D80070080317900071089100DE3092005A
:1012F0008A11EB248A1501309E008A1144228A1536
:1013000001300317900001309100463092008A119D
:1013100079268A1502300317900001309100DE30E3
:1013200092008A1179268A1586141530FB004B30FD
:10133000FC00BE30FD00FD0B9B29FC0B9B29FB0B29
:101340009B29000086101530FB004B30FC00BE309E
:10135000FD00FD0BA929FC0BA929FB0BA929000005
:10136000B429061BB42906118316EE018A112F2613
:101370008A158A11DB238A150030F4000030F5004D
:101380002030F6008130F7008A11A4228A1500303F
:10139000F4000030F5004830F6008530F7008A117F
:1013A000A4228A150030F400C030F5007F30F6002A
:1013B0008830F7008A1178258A1570080317900085
:1013C000710891007208920073089300AA3094008B
:1013D0008A1143248A150230900009309100AA3006
:0C13E00092008A1179268A154F28F52901
:040EFC00003400348A
:100F000054346134703469347334203445346E346D
:0E0F1000203443346F3475347234733400343B
:040F1E003C3400342B
:040F22000034003463
:100F26004234693465346E34763465346E347534DF
:080F360065342034213400343D
:100F3E00443469347334743461346E3463346534D8
:0C0F4E00203465346E3420346D340034DF
:040F5A009B34003490
:020F5E000F344E
:040F60000034003425
:040F64000034003421
:0C0F68007234653470346F34733400341C
:040F74000034003411
:0E0F780046347234653471343A342034003417
:100F86004134643468346534723465346E34743490
:040F96003A340034B5
:02400E007A3BFB
:00000001FF
